{
  "_format": "hh-sol-artifact-1",
  "contractName": "DigitalCurrency",
  "sourceName": "contracts/DigitalCurrency.sol",
  "abi": [
    {
      "inputs": [
        {
          "internalType": "uint256",
          "name": "launchtime",
          "type": "uint256"
        },
        {
          "internalType": "address",
          "name": "usd",
          "type": "address"
        }
      ],
      "stateMutability": "nonpayable",
      "type": "constructor"
    },
    {
      "anonymous": false,
      "inputs": [
        {
          "indexed": true,
          "internalType": "address",
          "name": "owner",
          "type": "address"
        },
        {
          "indexed": true,
          "internalType": "address",
          "name": "spender",
          "type": "address"
        },
        {
          "indexed": false,
          "internalType": "uint256",
          "name": "value",
          "type": "uint256"
        }
      ],
      "name": "Approval",
      "type": "event"
    },
    {
      "anonymous": false,
      "inputs": [
        {
          "indexed": true,
          "internalType": "address",
          "name": "from",
          "type": "address"
        },
        {
          "indexed": true,
          "internalType": "address",
          "name": "to",
          "type": "address"
        },
        {
          "indexed": false,
          "internalType": "uint256",
          "name": "value",
          "type": "uint256"
        }
      ],
      "name": "Transfer",
      "type": "event"
    },
    {
      "anonymous": false,
      "inputs": [
        {
          "indexed": false,
          "internalType": "address",
          "name": "msgsender",
          "type": "address"
        },
        {
          "indexed": false,
          "internalType": "uint256",
          "name": "amount",
          "type": "uint256"
        }
      ],
      "name": "e_buy",
      "type": "event"
    },
    {
      "anonymous": false,
      "inputs": [
        {
          "indexed": false,
          "internalType": "address",
          "name": "msgsender",
          "type": "address"
        },
        {
          "indexed": false,
          "internalType": "uint256",
          "name": "amount",
          "type": "uint256"
        }
      ],
      "name": "e_sell",
      "type": "event"
    },
    {
      "inputs": [
        {
          "internalType": "uint256",
          "name": "usd",
          "type": "uint256"
        }
      ],
      "name": "Buy",
      "outputs": [
        {
          "internalType": "bool",
          "name": "",
          "type": "bool"
        }
      ],
      "stateMutability": "nonpayable",
      "type": "function"
    },
    {
      "inputs": [],
      "name": "ONE_USD",
      "outputs": [
        {
          "internalType": "uint256",
          "name": "",
          "type": "uint256"
        }
      ],
      "stateMutability": "view",
      "type": "function"
    },
    {
      "inputs": [
        {
          "internalType": "uint256",
          "name": "uxdt",
          "type": "uint256"
        }
      ],
      "name": "Sell",
      "outputs": [
        {
          "internalType": "bool",
          "name": "",
          "type": "bool"
        }
      ],
      "stateMutability": "nonpayable",
      "type": "function"
    },
    {
      "inputs": [],
      "name": "USD",
      "outputs": [
        {
          "internalType": "address",
          "name": "",
          "type": "address"
        }
      ],
      "stateMutability": "view",
      "type": "function"
    },
    {
      "inputs": [
        {
          "internalType": "address",
          "name": "owner",
          "type": "address"
        },
        {
          "internalType": "address",
          "name": "spender",
          "type": "address"
        }
      ],
      "name": "allowance",
      "outputs": [
        {
          "internalType": "uint256",
          "name": "",
          "type": "uint256"
        }
      ],
      "stateMutability": "view",
      "type": "function"
    },
    {
      "inputs": [
        {
          "internalType": "address",
          "name": "spender",
          "type": "address"
        },
        {
          "internalType": "uint256",
          "name": "amount",
          "type": "uint256"
        }
      ],
      "name": "approve",
      "outputs": [
        {
          "internalType": "bool",
          "name": "",
          "type": "bool"
        }
      ],
      "stateMutability": "nonpayable",
      "type": "function"
    },
    {
      "inputs": [
        {
          "internalType": "address",
          "name": "account",
          "type": "address"
        }
      ],
      "name": "balanceOf",
      "outputs": [
        {
          "internalType": "uint256",
          "name": "",
          "type": "uint256"
        }
      ],
      "stateMutability": "view",
      "type": "function"
    },
    {
      "inputs": [],
      "name": "decimals",
      "outputs": [
        {
          "internalType": "uint8",
          "name": "",
          "type": "uint8"
        }
      ],
      "stateMutability": "view",
      "type": "function"
    },
    {
      "inputs": [
        {
          "internalType": "address",
          "name": "spender",
          "type": "address"
        },
        {
          "internalType": "uint256",
          "name": "subtractedValue",
          "type": "uint256"
        }
      ],
      "name": "decreaseAllowance",
      "outputs": [
        {
          "internalType": "bool",
          "name": "",
          "type": "bool"
        }
      ],
      "stateMutability": "nonpayable",
      "type": "function"
    },
    {
      "inputs": [],
      "name": "getPrice",
      "outputs": [
        {
          "internalType": "uint256",
          "name": "",
          "type": "uint256"
        }
      ],
      "stateMutability": "view",
      "type": "function"
    },
    {
      "inputs": [
        {
          "internalType": "address",
          "name": "spender",
          "type": "address"
        },
        {
          "internalType": "uint256",
          "name": "addedValue",
          "type": "uint256"
        }
      ],
      "name": "increaseAllowance",
      "outputs": [
        {
          "internalType": "bool",
          "name": "",
          "type": "bool"
        }
      ],
      "stateMutability": "nonpayable",
      "type": "function"
    },
    {
      "inputs": [],
      "name": "launchTime",
      "outputs": [
        {
          "internalType": "uint256",
          "name": "",
          "type": "uint256"
        }
      ],
      "stateMutability": "view",
      "type": "function"
    },
    {
      "inputs": [],
      "name": "name",
      "outputs": [
        {
          "internalType": "string",
          "name": "",
          "type": "string"
        }
      ],
      "stateMutability": "view",
      "type": "function"
    },
    {
      "inputs": [],
      "name": "symbol",
      "outputs": [
        {
          "internalType": "string",
          "name": "",
          "type": "string"
        }
      ],
      "stateMutability": "view",
      "type": "function"
    },
    {
      "inputs": [],
      "name": "totalSupply",
      "outputs": [
        {
          "internalType": "uint256",
          "name": "",
          "type": "uint256"
        }
      ],
      "stateMutability": "view",
      "type": "function"
    },
    {
      "inputs": [
        {
          "internalType": "address",
          "name": "to",
          "type": "address"
        },
        {
          "internalType": "uint256",
          "name": "amount",
          "type": "uint256"
        }
      ],
      "name": "transfer",
      "outputs": [
        {
          "internalType": "bool",
          "name": "",
          "type": "bool"
        }
      ],
      "stateMutability": "nonpayable",
      "type": "function"
    },
    {
      "inputs": [
        {
          "internalType": "address",
          "name": "from",
          "type": "address"
        },
        {
          "internalType": "address",
          "name": "to",
          "type": "address"
        },
        {
          "internalType": "uint256",
          "name": "amount",
          "type": "uint256"
        }
      ],
      "name": "transferFrom",
      "outputs": [
        {
          "internalType": "bool",
          "name": "",
          "type": "bool"
        }
      ],
      "stateMutability": "nonpayable",
      "type": "function"
    }
  ],
  "bytecode": "0x60c06040523480156200001157600080fd5b506040516200302638038062003026833981810160405281019062000037919062000270565b6040518060400160405280601081526020017f4469676974616c2043757272656e6379000000000000000000000000000000008152506040518060400160405280600481526020017f55584454000000000000000000000000000000000000000000000000000000008152508160039080519060200190620000bb9291906200011b565b508060049080519060200190620000d49291906200011b565b5050508160a081815250508073ffffffffffffffffffffffffffffffffffffffff1660808173ffffffffffffffffffffffffffffffffffffffff168152505050506200031c565b8280546200012990620002e6565b90600052602060002090601f0160209004810192826200014d576000855562000199565b82601f106200016857805160ff191683800117855562000199565b8280016001018555821562000199579182015b82811115620001985782518255916020019190600101906200017b565b5b509050620001a89190620001ac565b5090565b5b80821115620001c7576000816000905550600101620001ad565b5090565b600080fd5b6000819050919050565b620001e581620001d0565b8114620001f157600080fd5b50565b6000815190506200020581620001da565b92915050565b600073ffffffffffffffffffffffffffffffffffffffff82169050919050565b600062000238826200020b565b9050919050565b6200024a816200022b565b81146200025657600080fd5b50565b6000815190506200026a816200023f565b92915050565b600080604083850312156200028a5762000289620001cb565b5b60006200029a85828601620001f4565b9250506020620002ad8582860162000259565b9150509250929050565b7f4e487b7100000000000000000000000000000000000000000000000000000000600052602260045260246000fd5b60006002820490506001821680620002ff57607f821691505b60208210811415620003165762000315620002b7565b5b50919050565b60805160a051612ccf62000357600039600081816107a801526108610152600081816104710152818161050601526106630152612ccf6000f3fe608060405234801561001057600080fd5b506004361061010b5760003560e01c806352288195116100a257806395d89b411161007157806395d89b41146102e457806398d5fdca14610302578063a457c2d714610320578063a9059cbb14610350578063dd62ed3e146103805761010b565b8063522881951461024857806367781c0e1461027857806370a0823114610296578063790ca413146102c65761010b565b806323b872dd116100de57806323b872dd1461019a578063313ce567146101ca57806339509351146101e85780633e328218146102185761010b565b806306fdde0314610110578063095ea7b31461012e57806318160ddd1461015e5780631bf6c21b1461017c575b600080fd5b6101186103b0565b60405161012591906121fb565b60405180910390f35b610148600480360381019061014391906122b6565b610442565b6040516101559190612311565b60405180910390f35b610166610465565b604051610173919061233b565b60405180910390f35b61018461046f565b6040516101919190612365565b60405180910390f35b6101b460048036038101906101af9190612380565b610493565b6040516101c19190612311565b60405180910390f35b6101d26104c2565b6040516101df91906123ef565b60405180910390f35b61020260048036038101906101fd91906122b6565b6104cb565b60405161020f9190612311565b60405180910390f35b610232600480360381019061022d919061240a565b610502565b60405161023f9190612311565b60405180910390f35b610262600480360381019061025d919061240a565b61062b565b60405161026f9190612311565b60405180910390f35b610280610752565b60405161028d919061233b565b60405180910390f35b6102b060048036038101906102ab9190612437565b61075e565b6040516102bd919061233b565b60405180910390f35b6102ce6107a6565b6040516102db919061233b565b60405180910390f35b6102ec6107ca565b6040516102f991906121fb565b60405180910390f35b61030a61085c565b604051610317919061233b565b60405180910390f35b61033a600480360381019061033591906122b6565b610929565b6040516103479190612311565b60405180910390f35b61036a600480360381019061036591906122b6565b6109a0565b6040516103779190612311565b60405180910390f35b61039a60048036038101906103959190612464565b6109c3565b6040516103a7919061233b565b60405180910390f35b6060600380546103bf906124d3565b80601f01602080910402602001604051908101604052809291908181526020018280546103eb906124d3565b80156104385780601f1061040d57610100808354040283529160200191610438565b820191906000526020600020905b81548152906001019060200180831161041b57829003601f168201915b5050505050905090565b60008061044d610a4a565b905061045a818585610a52565b600191505092915050565b6000600254905090565b7f000000000000000000000000000000000000000000000000000000000000000081565b60008061049e610a4a565b90506104ab858285610c1d565b6104b6858585610ca9565b60019150509392505050565b60006012905090565b6000806104d6610a4a565b90506104f78185856104e885896109c3565b6104f29190612534565b610a52565b600191505092915050565b60007f000000000000000000000000000000000000000000000000000000000000000073ffffffffffffffffffffffffffffffffffffffff166323b872dd3330856040518463ffffffff1660e01b81526004016105619392919061258a565b602060405180830381600087803b15801561057b57600080fd5b505af115801561058f573d6000803e3d6000fd5b505050506040513d601f19601f820116820180604052508101906105b391906125ed565b5060006105be61085c565b83670de0b6b3a76400006105d2919061261a565b6105dc91906126a3565b90506105e83382610f2a565b7fc2166c225cae6eb8becb7119cf875ffd133915640a6063d9d211427abe520ea333846040516106199291906126d4565b60405180910390a16001915050919050565b6000610637338361108a565b6000670de0b6b3a764000061064a61085c565b84610655919061261a565b61065f91906126a3565b90507f000000000000000000000000000000000000000000000000000000000000000073ffffffffffffffffffffffffffffffffffffffff1663a9059cbb33836040518363ffffffff1660e01b81526004016106bc9291906126d4565b602060405180830381600087803b1580156106d657600080fd5b505af11580156106ea573d6000803e3d6000fd5b505050506040513d601f19601f8201168201806040525081019061070e91906125ed565b507f4604cfc653c4c06a2f08d03d65ac98cb71ceb55b9edbaa93c6dd62280daf4fbd33846040516107409291906126d4565b60405180910390a16001915050919050565b670de0b6b3a764000081565b60008060008373ffffffffffffffffffffffffffffffffffffffff1673ffffffffffffffffffffffffffffffffffffffff168152602001908152602001600020549050919050565b7f000000000000000000000000000000000000000000000000000000000000000081565b6060600480546107d9906124d3565b80601f0160208091040260200160405190810160405280929190818152602001828054610805906124d3565b80156108525780601f1061082757610100808354040283529160200191610852565b820191906000526020600020905b81548152906001019060200180831161083557829003601f168201915b5050505050905090565b6000807f00000000000000000000000000000000000000000000000000000000000000004261088b91906126fd565b905063a92c1b0081106108b1576f04d5f6128c1099441448c6f183415f26915050610926565b60006108d16108c1610652611261565b6108cc6103e8611261565b611284565b905060006108f36108e184611261565b6108ee6301e13380611261565b611284565b905061092061091261090d836109088661130e565b611432565b61149d565b670de0b6b3a764000061209d565b93505050505b90565b600080610934610a4a565b9050600061094282866109c3565b905083811015610987576040517f08c379a000000000000000000000000000000000000000000000000000000000815260040161097e906127a3565b60405180910390fd5b6109948286868403610a52565b60019250505092915050565b6000806109ab610a4a565b90506109b8818585610ca9565b600191505092915050565b6000600160008473ffffffffffffffffffffffffffffffffffffffff1673ffffffffffffffffffffffffffffffffffffffff16815260200190815260200160002060008373ffffffffffffffffffffffffffffffffffffffff1673ffffffffffffffffffffffffffffffffffffffff16815260200190815260200160002054905092915050565b600033905090565b600073ffffffffffffffffffffffffffffffffffffffff168373ffffffffffffffffffffffffffffffffffffffff161415610ac2576040517f08c379a0000000000000000000000000000000000000000000000000000000008152600401610ab990612835565b60405180910390fd5b600073ffffffffffffffffffffffffffffffffffffffff168273ffffffffffffffffffffffffffffffffffffffff161415610b32576040517f08c379a0000000000000000000000000000000000000000000000000000000008152600401610b29906128c7565b60405180910390fd5b80600160008573ffffffffffffffffffffffffffffffffffffffff1673ffffffffffffffffffffffffffffffffffffffff16815260200190815260200160002060008473ffffffffffffffffffffffffffffffffffffffff1673ffffffffffffffffffffffffffffffffffffffff168152602001908152602001600020819055508173ffffffffffffffffffffffffffffffffffffffff168373ffffffffffffffffffffffffffffffffffffffff167f8c5be1e5ebec7d5bd14f71427d1e84f3dd0314c0f7b2291e5b200ac8c7c3b92583604051610c10919061233b565b60405180910390a3505050565b6000610c2984846109c3565b90507fffffffffffffffffffffffffffffffffffffffffffffffffffffffffffffffff8114610ca35781811015610c95576040517f08c379a0000000000000000000000000000000000000000000000000000000008152600401610c8c90612933565b60405180910390fd5b610ca28484848403610a52565b5b50505050565b600073ffffffffffffffffffffffffffffffffffffffff168373ffffffffffffffffffffffffffffffffffffffff161415610d19576040517f08c379a0000000000000000000000000000000000000000000000000000000008152600401610d10906129c5565b60405180910390fd5b600073ffffffffffffffffffffffffffffffffffffffff168273ffffffffffffffffffffffffffffffffffffffff161415610d89576040517f08c379a0000000000000000000000000000000000000000000000000000000008152600401610d8090612a57565b60405180910390fd5b610d94838383612158565b60008060008573ffffffffffffffffffffffffffffffffffffffff1673ffffffffffffffffffffffffffffffffffffffff16815260200190815260200160002054905081811015610e1a576040517f08c379a0000000000000000000000000000000000000000000000000000000008152600401610e1190612ae9565b60405180910390fd5b8181036000808673ffffffffffffffffffffffffffffffffffffffff1673ffffffffffffffffffffffffffffffffffffffff16815260200190815260200160002081905550816000808573ffffffffffffffffffffffffffffffffffffffff1673ffffffffffffffffffffffffffffffffffffffff1681526020019081526020016000206000828254610ead9190612534565b925050819055508273ffffffffffffffffffffffffffffffffffffffff168473ffffffffffffffffffffffffffffffffffffffff167fddf252ad1be2c89b69c2b068fc378daa952ba7f163c4a11628f55a4df523b3ef84604051610f11919061233b565b60405180910390a3610f2484848461215d565b50505050565b600073ffffffffffffffffffffffffffffffffffffffff168273ffffffffffffffffffffffffffffffffffffffff161415610f9a576040517f08c379a0000000000000000000000000000000000000000000000000000000008152600401610f9190612b55565b60405180910390fd5b610fa660008383612158565b8060026000828254610fb89190612534565b92505081905550806000808473ffffffffffffffffffffffffffffffffffffffff1673ffffffffffffffffffffffffffffffffffffffff168152602001908152602001600020600082825461100d9190612534565b925050819055508173ffffffffffffffffffffffffffffffffffffffff16600073ffffffffffffffffffffffffffffffffffffffff167fddf252ad1be2c89b69c2b068fc378daa952ba7f163c4a11628f55a4df523b3ef83604051611072919061233b565b60405180910390a36110866000838361215d565b5050565b600073ffffffffffffffffffffffffffffffffffffffff168273ffffffffffffffffffffffffffffffffffffffff1614156110fa576040517f08c379a00000000000000000000000000000000000000000000000000000000081526004016110f190612be7565b60405180910390fd5b61110682600083612158565b60008060008473ffffffffffffffffffffffffffffffffffffffff1673ffffffffffffffffffffffffffffffffffffffff1681526020019081526020016000205490508181101561118c576040517f08c379a000000000000000000000000000000000000000000000000000000000815260040161118390612c79565b60405180910390fd5b8181036000808573ffffffffffffffffffffffffffffffffffffffff1673ffffffffffffffffffffffffffffffffffffffff1681526020019081526020016000208190555081600260008282546111e391906126fd565b92505081905550600073ffffffffffffffffffffffffffffffffffffffff168373ffffffffffffffffffffffffffffffffffffffff167fddf252ad1be2c89b69c2b068fc378daa952ba7f163c4a11628f55a4df523b3ef84604051611248919061233b565b60405180910390a361125c8360008461215d565b505050565b6000677fffffffffffffff82111561127857600080fd5b604082901b9050919050565b60008082600f0b141561129657600080fd5b600082600f0b604085600f0b901b816112b2576112b1612674565b5b0590507fffffffffffffffffffffffffffffffff80000000000000000000000000000000600f0b81121580156112fb57506f7fffffffffffffffffffffffffffffff600f0b8113155b61130457600080fd5b8091505092915050565b60008082600f0b1361131f57600080fd5b60008083600f0b905068010000000000000000811261134657604081901d90506040820191505b640100000000811261136057602081901d90506020820191505b62010000811261137857601081901d90506010820191505b610100811261138f57600881901d90506008820191505b601081126113a557600481901d90506004820191505b600481126113bb57600281901d90506002820191505b600281126113ca576001820191505b60006040808403901b9050600083607f0386600f0b901b9050600067800000000000000090505b6000811315611425578182029150600060ff83901c905080607f0183901c92508082028401935050600181901d90506113f1565b5081945050505050919050565b600080604083600f0b85600f0b02901d90507fffffffffffffffffffffffffffffffff80000000000000000000000000000000600f0b811215801561148a57506f7fffffffffffffffffffffffffffffff600f0b8113155b61149357600080fd5b8091505092915050565b60006840000000000000000082600f0b126114b757600080fd5b7fffffffffffffffffffffffffffffffffffffffffffffffc0000000000000000082600f0b12156114eb5760009050612098565b60006f80000000000000000000000000000000905060006780000000000000008416600f0b131561153157608070016a09e667f3bcc908b2fb1366ea957d3e8202901c90505b60006740000000000000008416600f0b13156115625760807001306fe0a31b7152de8d5a46305c85edec8202901c90505b60006720000000000000008416600f0b13156115935760807001172b83c7d517adcdf7c8c50eb14a791f8202901c90505b60006710000000000000008416600f0b13156115c457608070010b5586cf9890f6298b92b71842a983638202901c90505b60006708000000000000008416600f0b13156115f55760807001059b0d31585743ae7c548eb68ca417fd8202901c90505b60006704000000000000008416600f0b1315611626576080700102c9a3e778060ee6f7caca4f7a29bde88202901c90505b60006702000000000000008416600f0b131561165757608070010163da9fb33356d84a66ae336dcdfa3f8202901c90505b60006701000000000000008416600f0b1315611688576080700100b1afa5abcbed6129ab13ec11dc95438202901c90505b600066800000000000008416600f0b13156116b857608070010058c86da1c09ea1ff19d294cf2f679b8202901c90505b600066400000000000008416600f0b13156116e85760807001002c605e2e8cec506d21bfc89a23a00f8202901c90505b600066200000000000008416600f0b1315611718576080700100162f3904051fa128bca9c55c31e5df8202901c90505b600066100000000000008416600f0b13156117485760807001000b175effdc76ba38e31671ca9397258202901c90505b600066080000000000008416600f0b1315611778576080700100058ba01fb9f96d6cacd4b180917c3d8202901c90505b600066040000000000008416600f0b13156117a857608070010002c5cc37da9491d0985c348c68e7b38202901c90505b600066020000000000008416600f0b13156117d85760807001000162e525ee054754457d59952920268202901c90505b600066010000000000008416600f0b131561180857608070010000b17255775c040618bf4a4ade83fc8202901c90505b6000658000000000008416600f0b13156118375760807001000058b91b5bc9ae2eed81e9b7d4cfab8202901c90505b6000654000000000008416600f0b1315611866576080700100002c5c89d5ec6ca4d7c8acc017b7c98202901c90505b6000652000000000008416600f0b131561189557608070010000162e43f4f831060e02d839a9d16d8202901c90505b6000651000000000008416600f0b13156118c4576080700100000b1721bcfc99d9f890ea069117638202901c90505b6000650800000000008416600f0b13156118f357608070010000058b90cf1e6d97f9ca14dbcc16288202901c90505b6000650400000000008416600f0b13156119225760807001000002c5c863b73f016468f6bac5ca2b8202901c90505b6000650200000000008416600f0b1315611951576080700100000162e430e5a18f6119e3c02282a58202901c90505b6000650100000000008416600f0b13156119805760807001000000b1721835514b86e6d96efd1bfe8202901c90505b60006480000000008416600f0b13156119ae576080700100000058b90c0b48c6be5df846c5b2ef8202901c90505b60006440000000008416600f0b13156119dc57608070010000002c5c8601cc6b9e94213c72737a8202901c90505b60006420000000008416600f0b1315611a0a5760807001000000162e42fff037df38aa2b219f068202901c90505b60006410000000008416600f0b1315611a3857608070010000000b17217fba9c739aa5819f44f98202901c90505b60006408000000008416600f0b1315611a665760807001000000058b90bfcdee5acd3c1cedc8238202901c90505b60006404000000008416600f0b1315611a94576080700100000002c5c85fe31f35a6a30da1be508202901c90505b60006402000000008416600f0b1315611ac257608070010000000162e42ff0999ce3541b9fffcf8202901c90505b60006401000000008416600f0b1315611af0576080700100000000b17217f80f4ef5aadda455548202901c90505b600063800000008416600f0b1315611b1d57608070010000000058b90bfbf8479bd5a81b51ad8202901c90505b600063400000008416600f0b1315611b4a5760807001000000002c5c85fdf84bd62ae30a74cc8202901c90505b600063200000008416600f0b1315611b77576080700100000000162e42fefb2fed257559bdaa8202901c90505b600063100000008416600f0b1315611ba45760807001000000000b17217f7d5a7716bba4a9ae8202901c90505b600063080000008416600f0b1315611bd1576080700100000000058b90bfbe9ddbac5e109cce8202901c90505b600063040000008416600f0b1315611bfe57608070010000000002c5c85fdf4b15de6f17eb0d8202901c90505b600063020000008416600f0b1315611c2b5760807001000000000162e42fefa494f1478fde058202901c90505b600063010000008416600f0b1315611c5857608070010000000000b17217f7d20cf927c8e94c8202901c90505b6000628000008416600f0b1315611c845760807001000000000058b90bfbe8f71cb4e4b33d8202901c90505b6000624000008416600f0b1315611cb0576080700100000000002c5c85fdf477b662b269458202901c90505b6000622000008416600f0b1315611cdc57608070010000000000162e42fefa3ae53369388c8202901c90505b6000621000008416600f0b1315611d08576080700100000000000b17217f7d1d351a389d408202901c90505b6000620800008416600f0b1315611d3457608070010000000000058b90bfbe8e8b2d3d4ede8202901c90505b6000620400008416600f0b1315611d605760807001000000000002c5c85fdf4741bea6e77e8202901c90505b6000620200008416600f0b1315611d8c576080700100000000000162e42fefa39fe95583c28202901c90505b6000620100008416600f0b1315611db85760807001000000000000b17217f7d1cfb72b45e18202901c90505b60006180008416600f0b1315611de3576080700100000000000058b90bfbe8e7cc35c3f08202901c90505b60006140008416600f0b1315611e0e57608070010000000000002c5c85fdf473e242ea388202901c90505b60006120008416600f0b1315611e395760807001000000000000162e42fefa39f02b772c8202901c90505b60006110008416600f0b1315611e6457608070010000000000000b17217f7d1cf7d83c1a8202901c90505b60006108008416600f0b1315611e8f5760807001000000000000058b90bfbe8e7bdcbe2e8202901c90505b60006104008416600f0b1315611eba576080700100000000000002c5c85fdf473dea871f8202901c90505b60006102008416600f0b1315611ee557608070010000000000000162e42fefa39ef44d918202901c90505b60006101008416600f0b1315611f10576080700100000000000000b17217f7d1cf79e9498202901c90505b600060808416600f0b1315611f3a57608070010000000000000058b90bfbe8e7bce5448202901c90505b600060408416600f0b1315611f645760807001000000000000002c5c85fdf473de6eca8202901c90505b600060208416600f0b1315611f8e576080700100000000000000162e42fefa39ef366f8202901c90505b600060108416600f0b1315611fb85760807001000000000000000b17217f7d1cf79afa8202901c90505b600060088416600f0b1315611fe2576080700100000000000000058b90bfbe8e7bcd6d8202901c90505b600060048416600f0b131561200c57608070010000000000000002c5c85fdf473de6b28202901c90505b600060028416600f0b13156120365760807001000000000000000162e42fefa39ef3588202901c90505b600060018416600f0b131561206057608070010000000000000000b17217f7d1cf79ab8202901c90505b604083600f0b901d603f03600f0b81901c90506f7fffffffffffffffffffffffffffffff600f0b81111561209357600080fd5b809150505b919050565b6000808214156120b05760009050612152565b600083600f0b12156120c157600080fd5b600060406fffffffffffffffffffffffffffffffff841685600f0b02901c90506000608084901c85600f0b02905077ffffffffffffffffffffffffffffffffffffffffffffffff81111561211457600080fd5b604081901b9050817fffffffffffffffffffffffffffffffffffffffffffffffffffffffffffffffff0381111561214a57600080fd5b818101925050505b92915050565b505050565b505050565b600081519050919050565b600082825260208201905092915050565b60005b8381101561219c578082015181840152602081019050612181565b838111156121ab576000848401525b50505050565b6000601f19601f8301169050919050565b60006121cd82612162565b6121d7818561216d565b93506121e781856020860161217e565b6121f0816121b1565b840191505092915050565b6000602082019050818103600083015261221581846121c2565b905092915050565b600080fd5b600073ffffffffffffffffffffffffffffffffffffffff82169050919050565b600061224d82612222565b9050919050565b61225d81612242565b811461226857600080fd5b50565b60008135905061227a81612254565b92915050565b6000819050919050565b61229381612280565b811461229e57600080fd5b50565b6000813590506122b08161228a565b92915050565b600080604083850312156122cd576122cc61221d565b5b60006122db8582860161226b565b92505060206122ec858286016122a1565b9150509250929050565b60008115159050919050565b61230b816122f6565b82525050565b60006020820190506123266000830184612302565b92915050565b61233581612280565b82525050565b6000602082019050612350600083018461232c565b92915050565b61235f81612242565b82525050565b600060208201905061237a6000830184612356565b92915050565b6000806000606084860312156123995761239861221d565b5b60006123a78682870161226b565b93505060206123b88682870161226b565b92505060406123c9868287016122a1565b9150509250925092565b600060ff82169050919050565b6123e9816123d3565b82525050565b600060208201905061240460008301846123e0565b92915050565b6000602082840312156124205761241f61221d565b5b600061242e848285016122a1565b91505092915050565b60006020828403121561244d5761244c61221d565b5b600061245b8482850161226b565b91505092915050565b6000806040838503121561247b5761247a61221d565b5b60006124898582860161226b565b925050602061249a8582860161226b565b9150509250929050565b7f4e487b7100000000000000000000000000000000000000000000000000000000600052602260045260246000fd5b600060028204905060018216806124eb57607f821691505b602082108114156124ff576124fe6124a4565b5b50919050565b7f4e487b7100000000000000000000000000000000000000000000000000000000600052601160045260246000fd5b600061253f82612280565b915061254a83612280565b9250827fffffffffffffffffffffffffffffffffffffffffffffffffffffffffffffffff0382111561257f5761257e612505565b5b828201905092915050565b600060608201905061259f6000830186612356565b6125ac6020830185612356565b6125b9604083018461232c565b949350505050565b6125ca816122f6565b81146125d557600080fd5b50565b6000815190506125e7816125c1565b92915050565b6000602082840312156126035761260261221d565b5b6000612611848285016125d8565b91505092915050565b600061262582612280565b915061263083612280565b9250817fffffffffffffffffffffffffffffffffffffffffffffffffffffffffffffffff048311821515161561266957612668612505565b5b828202905092915050565b7f4e487b7100000000000000000000000000000000000000000000000000000000600052601260045260246000fd5b60006126ae82612280565b91506126b983612280565b9250826126c9576126c8612674565b5b828204905092915050565b60006040820190506126e96000830185612356565b6126f6602083018461232c565b9392505050565b600061270882612280565b915061271383612280565b92508282101561272657612725612505565b5b828203905092915050565b7f45524332303a2064656372656173656420616c6c6f77616e63652062656c6f7760008201527f207a65726f000000000000000000000000000000000000000000000000000000602082015250565b600061278d60258361216d565b915061279882612731565b604082019050919050565b600060208201905081810360008301526127bc81612780565b9050919050565b7f45524332303a20617070726f76652066726f6d20746865207a65726f2061646460008201527f7265737300000000000000000000000000000000000000000000000000000000602082015250565b600061281f60248361216d565b915061282a826127c3565b604082019050919050565b6000602082019050818103600083015261284e81612812565b9050919050565b7f45524332303a20617070726f766520746f20746865207a65726f20616464726560008201527f7373000000000000000000000000000000000000000000000000000000000000602082015250565b60006128b160228361216d565b91506128bc82612855565b604082019050919050565b600060208201905081810360008301526128e0816128a4565b9050919050565b7f45524332303a20696e73756666696369656e7420616c6c6f77616e6365000000600082015250565b600061291d601d8361216d565b9150612928826128e7565b602082019050919050565b6000602082019050818103600083015261294c81612910565b9050919050565b7f45524332303a207472616e736665722066726f6d20746865207a65726f20616460008201527f6472657373000000000000000000000000000000000000000000000000000000602082015250565b60006129af60258361216d565b91506129ba82612953565b604082019050919050565b600060208201905081810360008301526129de816129a2565b9050919050565b7f45524332303a207472616e7366657220746f20746865207a65726f206164647260008201527f6573730000000000000000000000000000000000000000000000000000000000602082015250565b6000612a4160238361216d565b9150612a4c826129e5565b604082019050919050565b60006020820190508181036000830152612a7081612a34565b9050919050565b7f45524332303a207472616e7366657220616d6f756e742065786365656473206260008201527f616c616e63650000000000000000000000000000000000000000000000000000602082015250565b6000612ad360268361216d565b9150612ade82612a77565b604082019050919050565b60006020820190508181036000830152612b0281612ac6565b9050919050565b7f45524332303a206d696e7420746f20746865207a65726f206164647265737300600082015250565b6000612b3f601f8361216d565b9150612b4a82612b09565b602082019050919050565b60006020820190508181036000830152612b6e81612b32565b9050919050565b7f45524332303a206275726e2066726f6d20746865207a65726f2061646472657360008201527f7300000000000000000000000000000000000000000000000000000000000000602082015250565b6000612bd160218361216d565b9150612bdc82612b75565b604082019050919050565b60006020820190508181036000830152612c0081612bc4565b9050919050565b7f45524332303a206275726e20616d6f756e7420657863656564732062616c616e60008201527f6365000000000000000000000000000000000000000000000000000000000000602082015250565b6000612c6360228361216d565b9150612c6e82612c07565b604082019050919050565b60006020820190508181036000830152612c9281612c56565b905091905056fea26469706673582212203ac6a540503c6683a1fdc8b5cea7385ca82a2741d050b6ec28dfeed9ca5f47f664736f6c63430008090033",
  "linkReferences": {},
  "deployedLinkReferences": {}
}